:020000020000FC
:100000006BC318951895189518951895FAC21895F8
:10001000E1C20CC318951895189518958BC21895C0
:100020001895189518951500A00078072100B500BF
:10003000000073D360D20FE31DE023E001501040B5
:100040002040E1F700C00000EEEBF0E000811181FC
:10005000012B61F4A0ECB0E0ED91FC91F29734F447
:1000600000E00093BB00C19A03E007BBEEEBF0E0B9
:1000700000811181012B31F001E00093BB0001E010
:1000800007BBC198E2EDF0E0808191810296ECEC33
:10009000F0E0028113818017910764F0ECECF0E04E
:1000A00002811381E2EDF0E08081918102970817CF
:1000B000190794F40091BB00002371F00FEF009337
:1000C000BA0003E00093B800ECECF0E00281138189
:1000D000E2EDF0E000831183E4EDF0E080819181B6
:1000E0000296ECECF0E0048115818017910764F032
:1000F000ECECF0E004811581E4EDF0E08081918189
:1001000002970817190774F40FEF0093BA0006E07E
:100110000093B800ECECF0E004811581E4EDF0E030
:1001200000831183ECECF0E08081918195958795B7
:100130004E96E0ECF0E080839183E0ECF0E000810B
:100140001181ECEBF0E0008311830091BB000023F0
:1001500051F40AE00093AC000AE00093AD000AE01D
:100160000093AE003DC000E00093B600ECEBF0E081
:1001700000811181043620E0120774F0ECEBF0E00E
:10018000008111810456104000831183E6EBF0E0FA
:10019000008103950083EACF0091B6000093AC0084
:1001A00000E00093B600ACEBB0E0ED91FC913A9723
:1001B00074F0ECEBF0E0008111810A5010400083F4
:1001C0001183E6EBF0E0008103950083ECCF009112
:1001D000B6000093AD00ECEBF0E000810093AE00C0
:1001E000ECECF0E002811381013D20E012076CF09D
:1001F000ECECF0E00281138143E089D20B51104016
:10020000E2ECF0E00083118306C000E010E0E2ECD5
:10021000F0E000831183E2ECF0E000811181ECEB6F
:10022000F0E00083118300E00093B600ECEBF0E017
:1002300000811181043620E0120774F0ECEBF0E04D
:10024000008111810456104000831183E6EBF0E039
:10025000008103950083EACF0091B600002329F0C6
:100260000091B6000093AF0003C00AE00093AF0016
:1002700000E00093B600ACEBB0E0ED91FC913A9752
:1002800074F0ECEBF0E0008111810A501040008323
:100290001183E6EBF0E0008103950083ECCF009141
:1002A000B6000093B000ECEBF0E000810093B100E9
:1002B000ECECF0E004811581033421E012070CF42A
:1002C00051C0ECECF0E08481958195958795CD97B0
:1002D000EEEBF0E080839183EEEBF0E000811181A2
:1002E000ECEBF0E00083118300E00093B600ECEB50
:1002F000F0E000811181043620E0120774F0ECEB8D
:10030000F0E0008111810456104000831183E6EB78
:10031000F0E0008103950083EACF0091B6000093DE
:10032000B20000E00093B600ACEBB0E0ED91FC91C0
:100330003A9774F0ECEBF0E0008111810A50104024
:1003400000831183E6EBF0E0008103950083ECCF9E
:100350000091B6000093B300ECEBF0E00081009355
:10036000B4000FC000E00093B2000BE00093B300B4
:100370000BE00093B40000E010E0EEEBF0E000834F
:100380001183EEEBF0E000811181E0ECF0E02081E0
:100390003181021B130BE4ECF0E000831183EEEBE0
:1003A000F0E000811181012B09F465C0A4ECB0E0FC
:1003B000ED91FC9175973CF00FEF1FE7E8ECF0E052
:1003C000008311836AC0E4ECF0E0008111810D3EEE
:1003D0002FEF12070CF442C0E4ECF0E040815181B1
:1003E00004E610E086D1C801E4ECF0E040815181E0
:1003F00005E010E07ED1080F191FEAECF0E08081E3
:100400009181800F911FE4ECF0E040815181E6EC96
:10041000F0E000811181401B510B0AE010E069D12E
:10042000080F191FE8ECF0E000831183E8ECF0E01E
:100430000081118100342FE112077CF5E4ECF0E03B
:100440004081518105E010E054D1EAECF0E02081D8
:100450003181200F311F208331831FC000E010E065
:10046000E8ECF0E00083118300E010E0EAECF0E05B
:100470000083118312C000E010E0E8ECF0E000839C
:10048000118300E010E0EAECF0E00083118300E06B
:1004900010E0E4ECF0E000831183E4ECF0E0008194
:1004A0001181E6ECF0E000831183A8ECB0E0ED915F
:1004B000FC91319744F0E8ECF0E00081118143E0D9
:1004C00020D11BBD0ABDE8ECF0E0008111810130B4
:1004D0002DE7120724F00FEF1FEF1BBD0ABDA8EC9C
:1004E000B0E0ED91FC9131970CF0A5CD00E010E06B
:1004F0001BBD0ABDA0CD01E007BB02E008BB08E3BD
:1005000004BB08E305BB0FEF01BB0FEF02BB03E029
:1005100003BF00E00FBD03E00EBD00E010E81BBD0F
:100520000ABD09B7056109BF789400E407B90FEC6B
:1005300006B90895FA93EA937A936A935A934A9381
:100540003A932A931A930A935FB778940FE806B9FF
:1005500004B115B1B8010091B90010E0000F111FEE
:10056000F801E453FF4F208131818B01021B130BF3
:1005700043E0CDD02091B90030E0220F331FF901C4
:10058000E453FF4F20813181200F311F20833183BD
:10059000E9EBF0E00081039500830091B90003309E
:1005A00019F400E00093B90007B1007F07B900918A
:1005B000B90017B1102B17B90FEC06B95FBF09913D
:1005C0001991299139914991599169917991E991BB
:1005D000F99118953A932A931A930A933FB7B29BCD
:1005E0000AC00AB51BB5003021E0120720F001E077
:1005F0000093B500C09A3FBF099119912991399193
:1006000018953A932A931A930A933FB70AB51BB5E4
:100610000F3F2FEF120721F000E00093B500C098C4
:100620003FBF09911991299139911895FA93EA934D
:100630005A934A933A932A931A930A935FB77894FA
:100640000FEF02BB0091B70003950093B700033092
:1006500019F400E00093B70005B3086305BB0FED84
:1006600010E04091B70053D015B3102315BB209173
:10067000B70030E00091B80010E0020F131FF8013E
:10068000E455FF4F008110E0F801E056FF4F008174
:1006900002BB0091B500002329F00091B7000230A1
:1006A00009F493980091BA00002331F0EAEBF0E0EE
:1006B00000810A95008303C000E00093B8005FBF8B
:1006C000099119912991399149915991E991F9919A
:1006D000189500008895FECF0FE90DBF00E00EBF12
:1006E000C0E8D0E01FD0002309F02CD0A2DCF1DF5D
:1006F000F0CF149F102D059F100D049F002D110D9C
:1007000008954A951AF0000F111FFBCF08954A95DE
:100710001AF015950795FBCF0895BA93AA939A936B
:100720008A93089501E0089520E006D0E9F708953E
:10073000259102D0E9F708952D9301501040202F04
:10074000212B089586E290E0FC0105911491FC01B3
:100750003296A591B491FC01349625913491422FA3
:10076000432B19F0F901E4DF01C0DEDF069610E04B
:100770008233910748F308950AFA2CA8D88909BA58
:0D0780000888FF1D0A0A0A0A0A0A0A0A0A66
:0400000300000000F9
:00000001FF
